:100000000C9462000C948A000C948A000C948A0070
:100010000C948A000C948A000C948A000C948A0038
:100020000C948A000C948A000C948A000C948A0028
:100030000C948A000C948A000C948A000C948A0018
:100040000C94840C0C948A000C94520C0C942C0C80
:100050000C948A000C948A000C948A000C948A00F8
:100060000C94CE0C0C948A000000000024002700A1
:100070002A0000000000250028002B0000000000DE
:1000800023002600290004040404040404040202DA
:100090000202020203030303030301020408102007
:1000A0004080010204081020010204081020000012
:1000B0000008000201000003040700000000000027
:1000C0000000ED0D11241FBECFEFD8E0DEBFCDBF85
:1000D00011E0A0E0B1E0EEE0F4E202C005900D9284
:1000E000A63FB107D9F726E0A6EFB1E001C01D9207
:1000F000A83FB207E1F710E0C2E6D0E004C02197C4
:10010000FE010E94FF11C136D107C9F70E940E0FF0
:100110000C9405120C940000AF92BF92CF92DF9224
:10012000EF92FF920F931F93CF93DF936C017B01AC
:100130008B01040F151FEB015E01AE18BF08C0173D
:10014000D10759F06991D601ED91FC910190F081B0
:10015000E02DC6010995892B79F7C501DF91CF9173
:100160001F910F91FF90EF90DF90CF90BF90AF90D5
:100170000895FC01538D448D252F30E0842F90E0AD
:10018000821B930B541710F0CF9608950197089592
:10019000FC01918D828D981761F0A28DAE0FBF2F5B
:1001A000B11D5D968C91928D9F5F9F73928F90E0B1
:1001B00008958FEF9FEF0895FC01918D828D981720
:1001C00031F0828DE80FF11D858D90E008958FEF5D
:1001D0009FEF0895FC01918D228D892F90E0805C26
:1001E0009F4F821B91098F73992708958AEA92E0A5
:1001F0000E94EA0021E0892B09F420E0822F089573
:10020000FC01A48DA80FB92FB11DA35ABF4F2C918B
:10021000848D90E001968F739927848FA689B78982
:100220002C93A089B1898C91837080648C93938D79
:10023000848D981306C00288F389E02D80818F7D1C
:1002400080830895EF92FF920F931F93CF93DF93D4
:10025000EC0181E0888F9B8D8C8D98131AC0E88902
:10026000F989808185FF15C09FB7F894EE89FF89D1
:100270006083E889F98980818370806480839FBF6F
:1002800081E090E0DF91CF911F910F91FF90EF906F
:100290000895F62E0B8D10E00F5F1F4F0F7311277F
:1002A000E02E8C8D8E110CC00FB607FCFACFE889BA
:1002B000F989808185FFF5CFCE010E940001F1CF41
:1002C000EB8DEC0FFD2FF11DE35AFF4FF0829FB72E
:1002D000F8940B8FEA89FB8980818062CFCFCF931E
:1002E000DF93EC01888D8823B9F0AA89BB89E8895E
:1002F000F9898C9185FD03C0808186FD0DC00FB604
:1003000007FCF7CF8C9185FFF2CF808185FFEDCF81
:10031000CE010E940001E9CFDF91CF910895833093
:1003200081F028F4813099F08230A9F00895873067
:10033000A9F08830C9F08430B1F4809180008F7DBD
:1003400003C0809180008F7780938000089584B5EA
:100350008F7784BD089584B58F7DFBCF8091B000E9
:100360008F778093B00008958091B0008F7DF9CF92
:100370001F93CF93DF93282F30E0F901E255FF4F11
:100380008491F901E656FF4FD491F901EA57FF4FE6
:10039000C491CC23A9F0162F81110E948F01EC2F5C
:1003A000F0E0EE0FFF1FEE58FF4FA591B4918FB70D
:1003B000F894EC91111108C0D095DE23DC938FBF27
:1003C000DF91CF911F910895DE2BF8CFCF93DF936C
:1003D00090E0FC01E656FF4F24918A579F4FFC01A5
:1003E00084918823D1F090E0880F991FFC01E8598F
:1003F000FF4FA591B491FC01EE58FF4FC591D491E8
:10040000623071F49FB7F8943C91822F80958323DA
:100410008C93E8812E2B28839FBFDF91CF91089585
:100420008FB7F894EC912E2B2C938FBFF6CF3FB75C
:10043000F89480919C0290919D02A0919E02B091AF
:100440009F0226B5A89B05C02F3F19F00196A11D5C
:10045000B11D3FBFBA2FA92F982F8827BC01CD010E
:10046000620F711D811D911D42E0660F771F881F6D
:10047000991F4A95D1F708958F929F92AF92BF929C
:10048000CF92DF92EF92FF924B015C010E94170224
:100490006B017C010E9417026C197D098E099F096E
:1004A000683E734081059105A8F321E0821A910806
:1004B000A108B10888EEC80E83E0D81EE11CF11C2B
:1004C00081149104A104B10429F7FF90EF90DF900B
:1004D000CF90BF90AF909F908F9008952FB7F894D2
:1004E000609198027091990280919A0290919B027A
:1004F0002FBF089520914B02260F3327331F21323F
:100500003105ECF420917102FC0190E080E0243090
:1005100069F082E00895A0914B022191AC01475D02
:100520005D4FA40FB52FB11D2C930196861798F33C
:1005300080914B02680F60934B0280E0089581E048
:100540000895ECEBF0E080818A7B808360E082E1BB
:100550000E94B80160E083E10C94B801109271022E
:1005600081E0809373021092720261E082E10E9446
:10057000B80161E083E10E94B801E9EBF0E080811D
:100580008E7F808380818D7F808388E48093B80014
:1005900085E48093BC000895E0912102F09122024D
:1005A000309729F01092200210921F0209940895AA
:1005B000CF93DF93AC01E0911D02F0911E023097C2
:1005C000F1F090911C0280911B029817C0F090E00E
:1005D000292F30E02617370754F4D901A550BE4F14
:1005E000240F351FE90128812C939F5FF1CF1092D2
:1005F0001C0260931B02CB01DF91CF910994DF9124
:10060000CF9108950895E0911C0280911B02E81794
:1006100030F4F0E0E550FE4F808190E008958FEFD8
:100620009FEF089590911C0280911B022FEF3FEFE6
:10063000981748F4E92FF0E0E550FE4F208130E0B4
:100640009F5F90931C02C901089580911B029091B5
:100650001C02891B990B0895CF93DF93CB01EA010C
:10066000642F0E947A02CE01DF91CF910895CF933B
:10067000DF931F92CDB7DEB7698361E0CE010196AB
:100680000E947A0281E090E00F90DF91CF9108956F
:1006900090E080E008959091FA01882349F091114B
:1006A0000DC081E08093FA0161E08DE00C94B80107
:1006B000992321F01092FA0160E0F7CF0895CF93CB
:1006C000C82F81E00E944B030E94A102CC2331F08D
:1006D0006AEF70E080E090E00E943C0280E00E94BF
:1006E0004B0310921C0210921B02109220021092D7
:1006F0001F020E94AE028CEC92E090934A0280931B
:10070000490288ED92E090934E0280934D0280E181
:100710008093BA0087E997E090931E0280931D02B0
:100720008AE395E0909322028093210281E18093F5
:10073000BA00CF910895CF93DF93FC01CB018D597F
:100740009F4FDB016F5F7F4F2C912132B4F08617F2
:100750009707B9F730E020E0A18181E08A0F81831B
:10076000AE0FBF2FB11D12961C922F5F3F4F20314D
:10077000310594F3DF91CF91089530E020E0119698
:100780008C91C18191E09C0F9183CE0FDF2FD11D01
:100790008A832F5F3F4F2031310561F38C9118160A
:1007A00074F3DACFDC011196EC911197AE0FB11D05
:1007B00012967C93A1E0AE0FA80FB92FB11D12962F
:1007C0006C93A2E0AE0FA80FB92FB11D12965C93E7
:1007D00024E02E0FDC0111962C93ED5FE80FF92F2A
:1007E000F11D428308958F929F92AF92BF92CF9254
:1007F000DF92EF92FF920F931F93CF93DF93EC0161
:100800004A015B016C018FEFC81AD80AE090000121
:10081000F0900101870109591C4FF8018185EA8197
:1008200091E09E0F9A83EC0FFD2FF11D8383F80159
:1008300085819681A781B085481B590B6A0B7B0B7C
:10084000C6010E94D203F701E55CFC4F91818A81C9
:1008500021E0280F2A83DE01A80FB11D13969C9377
:10086000378192E0980F9A83FE01E20FF11D3383E6
:10087000F80120818D5F8A83C90FD11D2B8381816F
:100880009281A381B481892B8A2B8B2BC9F485811A
:100890009681A781B085B501A401481B590B6A0B4D
:1008A0007B0BC601DF91CF911F910F91FF90EF90CD
:1008B000DF90CF90BF90AF909F908F900C94D20319
:1008C0004181528163817481ECCF1F93CF93DF9379
:1008D000EC01162F1A828881813309F480C0C0F59B
:1008E0008D3009F468C068F4833009F457C085304E
:1008F00009F461C081110CC081E08A8388E08B8398
:1009000066C0823209F479C0B8F4813109F48EC02E
:100910008A81882309F4A9C0FE01339650E040E0A3
:1009200090E0282F30E0421753070CF098C06191F7
:10093000960F4F5F5F4FF7CF833209F464C0803367
:1009400039F7E0910001F0910101E85CFC4F12C021
:100950008C3309F473C080F4833309F45EC008F467
:1009600045C0893309F467C0E0910001F0910101AD
:100970008A3371F680814EC08E3309F468C008F462
:1009800063C08F3309F466C06AED71E0803409F00A
:10099000BFCFCE0101960E949B0319C0E0910001D8
:1009A000F0910101EA5CFC4F808191819B8392E090
:1009B0009A838C830CC00E946E02AB01BC01CE01F5
:1009C0000E94F3038091A50280628093A50280912A
:1009D000A502111142C080618093A50299CFE091D8
:1009E0000001F0910101E75CFC4FC4CFE0910001F0
:1009F000F0910101E65CFC4FBDCF85E28B8382E084
:100A00008A8383E2D6CFE0910001F0910101E55C99
:100A1000FC4F808591E09A8372CF0E946E02AB01F9
:100A2000BC01CE0101960E94D203D1CF1B8282E08D
:100A30008A831C82CCCF80910201ECCFE09100012F
:100A4000F09101018181E6CF65E871E0A2CF6DE907
:100A500071E09FCF6DEB71E09CCF8065BDCF8F5F64
:100A60008A832C0F3D1FF90193831882DF91CF9168
:100A70001F91089560E083E593E00E946504409132
:100A80005503442349F050E066E573E087E493E0C2
:100A90000E942C031092550308958D5E9C4FDC013B
:100AA000ED91FC9160817181828193810895DC01D7
:100AB0001396EC91E80FF92FF11DE853FF4F808159
:100AC00008950F931F93CF93DF93FC0184818823B4
:100AD00011F0815084838281811102C083EC828372
:100AE000A281A150A283AE0FBF2FB11D15969C917C
:100AF00015978F0105571E4F291709F440C0159609
:100B00002C93D80183EC81503E91931711F0811101
:100B1000FACFA82FB0E0EF01CA0FDB1FC853DF4F99
:100B200028839217B0F4A1E0A80FB0E0A853BF4FFC
:100B3000AE0FBF1F823C19F1EF01C80FD11DC85382
:100B4000DF4F98812C912917D0F428839D938F5FD4
:100B5000F1CFA953BF4FAE0FBF1F9F0129533F4F86
:100B6000A217B30761F08C9111969C911197981779
:100B700030F49C9311968C9311971197F1CFEF015C
:100B8000CB5EDC4F888199810496DF01AD5EBC4F5E
:100B90008A179B07E1F0998388830990D881C02D3B
:100BA000488359836A837B83E95EFC4F8081823668
:100BB000A1F48D919C9111970496A817B90751F053
:100BC0008D939C93DF91CF911F910F91089519837D
:100BD0000883E3CF0D931C93F5CF808191E0980FAC
:100BE00090838111EFCFCD93DC93ECCF21E0FC011A
:100BF0008481811120E0822F08958F929F92AF927D
:100C0000BF92CF92DF92EF92FF92CF93DF933FB7E5
:100C1000F894FC01ED5BFC4F2081DC01A959BC4F2D
:100C20002C9393974D915D916D917C91139798962C
:100C3000CD90DD90ED90FC9013974A015B018C18EC
:100C40009D08AE08BF0875016401EC01C859DC4F6E
:100C5000C882D982EA82FB824D935D936D937C9327
:100C6000139714962C912F5F2C933FBFD5971C920E
:100C7000875B9C4FDC011C92108260E08DE0DF916D
:100C8000CF91FF90EF90DF90CF90BF90AF909F906B
:100C90008F900C94B8011F93CF93DF93EC01162F24
:100CA00019828881823709F48EC008F5863609F4E6
:100CB00060C038F48135C1F11882DF91CF911F9166
:100CC0000895803709F46DC08137B1F781E08983D9
:100CD0009B81E0910001F0910101E75CFC4F808174
:100CE0008917D1F08091A502908384603FC0893735
:100CF00009F49CC060F4853709F495C08837E1F6A3
:100D000080910001909101010E94FD0505C08A3784
:100D100009F46BC08E3781F68091A502111197C03E
:100D200080618093A502C8CF8B8192E099839C81DA
:100D30008927982789279C01245631092C3A364265
:100D400058F7E0910001F0910101EA5CFC4F20812D
:100D500031812817390739F02091A50291838083CA
:100D600022602093A5028091A50281608093A50254
:100D7000D3CF8091000190910101FC01E55CFC4F13
:100D800010823E9621E0208336971082379720818B
:100D90008E5B9C4FFC01208360E08DE00E94B801D7
:100DA000BBCF81E089839B81E0910001F09101013B
:100DB000E85CFC4F8081891709F4AECF8091A502D1
:100DC00090838068D3CF81E089839B81E09100018B
:100DD000F0910101E65CFC4F8081891709F49CCFFA
:100DE0008091A50290838860C1CF81E089832B81A7
:100DF00080910201281708F08FCFE0910001F09157
:100E000001018081281709F487CF47E753E0249F29
:100E1000C001259F900D11248F579C4F9093010185
:100E20008093000179CF82E0898376CF81E0898346
:100E30008B81882329F062E08CE00E94E6016CCF70
:100E400061E08CE00E94E60160E08CE0A7CF806565
:100E500068CFCF93DF93C5E1D0E08AEA92E00E94A9
:100E6000EA00892BE9F08AEA92E00E94C800E0914A
:100E70006C03E1112DC080936A038135B0F0815578
:100E80008E3288F4E82FF0E0ED5FFE4F80818823FA
:100E900029F010926B038F5F80936C032197E9F622
:100EA000DF91CF9108958FEFF4CF61E08AE693E070
:100EB0000E94650440916C03442381F350E06DE689
:100EC00073E08AEA92E00E948C0010926C03E6CFF5
:100ED00020916B0391E0920F90936B0330E0D90166
:100EE000A659BC4F13968C93E913D8CFAAE6B3E06A
:100EF00080E0AD014A5653404217530734F413962D
:100F00009C911397890F1196F4CFF0E0E659FC4FAE
:100F100092819813DACF61E08AE693E00E944B0653
:100F2000D4CF0E94F60081110C9429070895CF9325
:100F3000DF93892B09F44DC087E493E00E941203EC
:100F400080935303813508F447C081558E32E8F40D
:100F5000E82FF0E0ED5FFE4FC081CC23C1F110928D
:100F60005503E0915503CE1790F4A3E5B3E020E0DC
:100F7000D0E0AD01435553404C175D07ECF4139698
:100F80003C911397230F1196F4CFCFEFE8CF9091B8
:100F90001B0280911C029817D1F087E493E00E9415
:100FA000120390915503E92FF0E0ED5AFC4F838333
:100FB0009F5F90935503D5CFF0E0ED5AFC4F8281AF
:100FC000821305C060E083E593E00E944B06109217
:100FD0005503DF91CF910895C0911B0280911C02AF
:100FE000C817B9F380911C02C81799F387E493E0FE
:100FF0000E941203F7CF6F927F928F929F92AF92CF
:10100000BF92CF92DF92EF92FF920F931F93CF93F5
:10101000DF93EC016C013CECC31A3CEFD30AD60120
:101020008D919C91DC01ED91FC910280F381E02D8A
:101030000995F60180819181DC01ED91FC9101908F
:10104000F081E02D0995FE01E55CFC4F7F018823CE
:1010500009F4B7C03D968081882309F4B2C08E019F
:10106000045C1C4FD8018C913B978083F6018081F2
:101070009181DC01ED91FC910480F581E02D0995D1
:10108000F8018083D6018D919C91DC01ED91FC915A
:101090000680F781E02D09956E01B2ECCB1ABCEF0A
:1010A000DB0AF6016083718382839383D7018C917D
:1010B000811113C0F801908136968081891768F4F8
:1010C000D8019C9139978081981738F081E0F70119
:1010D000808361E08DE00E94B801D7018C91882364
:1010E00009F46FC0F8019081FE01ED5BFC4F808137
:1010F000891708F092C0D8018C918083D6014D9158
:101100005D916D917C91DE01AC5BBC4F4D935D9325
:101110006D937C931397DE01A85CBC4F2C91519684
:101120008C91AE014E5B5C4F3A01882399F0DA0155
:101130003C91D8018C9148505109DA019C91891B4E
:10114000990B3817190609F00CF487C0D3018C915C
:10115000D3018C939081D8018C9198131BC0CE0140
:101160008C5B9C4FD6014D915D916D917C91DC0122
:101170008D909D90AD90BC901397480D591D6A1DA0
:101180007B1D76956795579547954D935D936D9328
:101190007C9313979081D8018C91891708F063C0D4
:1011A00080818083F3018081281758F4D8013C9115
:1011B0008081821B990B381719061CF4CE010E94FE
:1011C000FD050E941702FE01E25BFC4F00811181C8
:1011D000228133815B016C01A01AB10AC20AD30AD1
:1011E00096018501C65BDC4F088319832A833B8304
:1011F0006083718382839383D7018C91DF91CF9138
:101200001F910F91FF90EF90DF90CF90BF90AF9024
:101210009F908F907F906F9008959081D8018C91CE
:10122000981379CF9E012C5B3C4FD6018D909D90F9
:10123000AD90BC90D9014D915D916D917C91D5019E
:10124000C401840F951FA61FB71FAC01BD01769581
:10125000679557954795D90159CFD8018C91DA01F7
:101260009C91891B75CF8C919CCF61E0FC0186819C
:101270000E94B8018BE193E00197F1F7089560E0D7
:10128000FC0186810E94B8018BE193E00197F1F7A0
:1012900008950F931F93CF93DF938C0160E0FC01BF
:1012A00082810E94B801CBEAD4E0CE010197F1F728
:1012B00061E0F80184810E94B801CE010197F1F745
:1012C00060E0F80184810E94B8012197F1F7DF9175
:1012D000CF911F910F9108950F931F93CF93DF9399
:1012E0008C0161E0FC0182810E94B801CBEAD4E06C
:1012F000CE010197F1F761E0F80184810E94B80105
:10130000CE010197F1F760E0F80184810E94B801F5
:101310002197F1F7DF91CF911F910F910895CF920F
:10132000DF92EF92FF921F93CF93DF93EC016A015C
:101330007B010E943509CE010E943F09CE010E9427
:101340004909CE010E946C09CE010E944909CE01D3
:101350000E946C09CE010E946C0914E1CE01C0FE0E
:1013600016C00E946C09F694E794D794C794115064
:10137000A9F7CE010E94350960E08A81DF91CF9103
:101380001F91FF90EF90DF90CF900C94B8010E94D6
:101390004909E9CF1F93CF93DF93EC010E943509F0
:1013A000CE010E943F09CE010E946C09CE010E942D
:1013B0006C09CE010E946C09CE010E946C09CE011D
:1013C0000E946C0914E1CE010E9449091150D9F71D
:1013D000CE010E94350943EF5DE06DE070E0CE0183
:1013E000DF91CF911F910C948F09CF92DF92EF92F2
:1013F000FF920F931F93CF93DF93EC018C010E5854
:101400001C4FF8018081882329F10E946E02FE01A1
:10141000ED58FC4FC080D180E280F380DC01CB012D
:101420008C199D09AE09BF0983329105A105B1054B
:1014300078F433E2C32ED12CE12CF12CA7019601D4
:10144000281B390B4A0B5B0BCA01B9010E943C02F5
:10145000F801108288858E3008F08E508770806485
:1014600080937C0080917A00806480937A008091E0
:101470007A0086FDFCCF90917800809179008927D1
:10148000982789278115F2E09F0714F08FEF91E0EC
:1014900095958795DF91CF911F910F91FF90EF90D8
:1014A000DF90CF900895CF92DF92EF92FF920F934B
:1014B0001F93CF93DF93EC018B010E946E02C090CB
:1014C000F601D090F701E090F801F090F901DC010D
:1014D000CB018C199D09AE09BF098E319105A1057B
:1014E000B10578F45EE1C52ED12CE12CF12CA701D9
:1014F0009601281B390B4A0B5B0BCA01B9010E94EC
:101500003C02FE01EA5CFC4F80819181AE014F58A4
:101510005C4F7A018735944099F44FEF5FEF6FE0AD
:1015200070E0CE010E948F0981E0F7018083DF9196
:10153000CF911F910F91FF90EF90DF90CF90089582
:10154000F7018081882329F0CE010E94CA09F701A2
:101550001082B8016F5D71408B01169507950F7170
:10156000112726E0769567952A95E1F77695762FEF
:10157000662777956795060F171FCE010E943509DC
:10158000CE010E943F09CE010E946C09CE010E944B
:101590004909CE010E944909CE010E944909CE01A4
:1015A0000E946C0940E1F42ECE0100FF3AC00E9477
:1015B0006C0916950795FA94F110F6CFCE010E94AA
:1015C0004909CE010E944909CE010E944909CE0174
:1015D0000E944909CE010E94350962E070E080E076
:1015E00090E00E943C0260E08C810E94B80160E0C3
:1015F0008A810E94B801FE01EE58FC4F81E0808391
:101600000E946E02CD58DC4F688379838A839B8366
:101610006093F6017093F7018093F8019093F901BC
:1016200086CF0E944909C5CF27E0FB01DC01129655
:1016300001900D922A95E1F708952FEFFC01228386
:101640000895CF93DF9300D000D000D01F92CDB784
:10165000DEB727E0FC013296DE01119601900D9273
:101660002A95E1F729813A814B815C816D817E81E8
:101670008F8190E027960FB6F894DEBF0FBECDBFE6
:10168000DF91CF9108950F931F93DC01FB019081AF
:1016900012968C911297981748F487E01296019051
:1016A0000D928A95E1F71F910F91089590811296FE
:1016B0008C9112979813F7CF418152816381748185
:1016C0008581968113960D911D912D913C911697D0
:1016D000401B510B480F591F18965C934E93179758
:1016E000E2CFFC01928181E09F3F09F480E0089500
:1016F000FC01928181E09F3F09F080E00895FC01A8
:10170000128208950F931F93DC01FB0190811296C2
:101710008C911297891748F487E0129601900D92E8
:101720008A95E1F71F910F910895908112968C91FF
:1017300012979813F7CF418152816381748185811B
:10174000968113960D911D912D913C911697401BFA
:10175000510B480F591F18965C934E931797E2CF81
:10176000FC01928181E0911101C080E00895FC01AB
:10177000928181E0911180E00895CF93DF9385ED10
:101780008093BC008091250290912602A0912702AF
:10179000B09128020796A11DB11D23E0B695A7952B
:1017A000979587952A95D1F72091BC0024FD03C019
:1017B000109271022BC04091250250912602609137
:1017C000270270912802452B462B472B69F300977F
:1017D000A105B10541F025E32A95F1F70000019735
:1017E000A109B109E1CF8091240291E090932302F5
:1017F000882361F0C091B800D091BA000E94A10284
:101800000E94AE02D093BA00C093B800DF91CF918E
:1018100008951F93CF93DF93EC010E949F11182F1F
:10182000CE0101960E949F1190E0982F8827810F8A
:10183000911DDF91CF911F9108951F93CF93DF9357
:10184000EC01172F0E94A711612FCE010196DF91A5
:10185000CF911F910C94A7111F920F920FB60F9268
:1018600011242F933F934F935F936F937F938F93A5
:101870009F93AF93BF93EF93FF938AEA92E00E9406
:101880000001FF91EF91BF91AF919F918F917F9157
:101890006F915F914F913F912F910F900FBE0F90DD
:1018A0001F9018951F920F920FB60F9211242F932D
:1018B0008F939F93EF93FF93E091BA02F091BB0255
:1018C0008081E091C002F091C10282FD1BC0908135
:1018D0008091C3028F5F8F732091C402821741F001
:1018E000E091C302F0E0E655FD4F958F8093C3026F
:1018F000FF91EF919F918F912F910F900FBE0F90BD
:101900001F9018958081F4CF1F920F920FB60F92FF
:1019100011242F933F938F939F93AF93BF93809105
:10192000980290919902A0919A02B0919B023091F5
:10193000970223E0230F2D3758F50196A11DB11D05
:10194000209397028093980290939902A0939A0211
:10195000B0939B0280919C0290919D02A0919E0267
:10196000B0919F020196A11DB11D80939C0290939E
:101970009D02A0939E02B0939F02BF91AF919F9151
:101980008F913F912F910F900FBE0F901F90189540
:1019900026E8230F0296A11DB11DD2CF1F920F92F0
:1019A0000FB60F9211242F933F934F935F936F9332
:1019B0007F938F939F93AF93BF93EF93FF93809108
:1019C000B900887F803609F44AC0F0F5883209F4FE
:1019D000A7C018F5803109F49BC0B8F4882309F436
:1019E000F9C0883009F494C0FF91EF91BF91AF9195
:1019F0009F918F917F916F915F914F913F912F9127
:101A00000F900FBE0F901F901895883109F488C071
:101A1000803251F78093700214C0803409F49DC065
:101A200040F48033B9F38833F9F68093700285EC83
:101A3000B0C0803509F485C0883509F496C0883473
:101A400099F60E94BD0BD0CF883909F48CC038F5C7
:101A5000883729F050F4883611F0803729F683E072
:101A60008093710210926F0257C0883809F47BC0CE
:101A7000803919F0803809F0B7CF80916F02803239
:101A800008F071C0E0916F0281E08E0F80936F02C9
:101A90008091BB00F0E0E15BFD4F80833DC0803B67
:101AA00039F0E0F4803A09F479C0883A09F09CCF23
:101AB00084E08093710210924C0210924B02E091EC
:101AC0004902F0914A02099580914B0281110FC0A1
:101AD00081E080934B021092290209C0803C09F4F6
:101AE000A6CF883C09F4A3CF883B09F07DCFE091D5
:101AF0004C0281E08E0F80934C02F0E0E75DFD4FD9
:101B000080818093BB0090914C0280914B0229C050
:101B1000809196028093BB0085EC8093BC0064CFDB
:101B20009091950280919402981758F5E091950252
:101B300081E08E0F80939502F0E0EC58FD4F80819C
:101B4000E9CFE091950281E08E0F8093950280911C
:101B5000BB00F0E0EC58FD4F80839091950280919E
:101B600094029817C8F285E8D8CFE091950281E0F9
:101B70008E0F809395028091BB00F0E0EC58FD4FF2
:101B800080838091730281115CCF81E08093720227
:101B900084EA8093BC001092710226CF85EC80937A
:101BA000BC001092710280916F02803230F4E0919B
:101BB0006F02F0E0E15BFD4F108260916F0270E018
:101BC000E0914D02F0914E028FE492E0099510925F
:101BD0006F020ACF1092700234CF1092AD021092B1
:101BE000AC0288EE93E0A0E0B0E08093AE02909368
:101BF000AF02A093B002B093B10225E331E030937D
:101C0000AB022093AA0225EC30E03093B702209378
:101C1000B60224EC30E03093B9022093B80220ECF5
:101C200030E03093BB022093BA0221EC30E03093D5
:101C3000BD022093BC0222EC30E03093BF0220931F
:101C4000BE0226EC30E03093C1022093C002109215
:101C5000C3021092C4021092C5021092C6021092E2
:101C60004A031092490380934B0390934C03A09333
:101C70004D03B0934E0387E491E090934803809323
:101C8000470310926B0310926C031092540310924E
:101C900055031092810310928203109284031092D4
:101CA000830310928603109285031092880310928A
:101CB000870310928A031092890389E591E090933B
:101CC0008C0380938B0383EC80938D0391E6909338
:101CD0008E0380938F03E3E5F4E080E993E01292B2
:101CE000DF01AD53BF4F1C928E179F07C1F786E1EE
:101CF00095E090939F0680939E069093A106809313
:101D0000A0061092A20685E691E09093A406809327
:101D1000A3061092A5061092A6061092A70610928E
:101D2000A8061092A9061092AB061092AA0687E7A1
:101D300091E09093AD068093AC068FEF8093AE0652
:101D40001092AF061092B0061092B1061092B20631
:101D50001092B4061092B30688EA96E19093B80602
:101D60008093B7068AE08093B9068093BA06809381
:101D7000BB061092BC061092BD061092BE061092D1
:101D8000BF061092C0061092C1061092C2061092B1
:101D9000C3061092C4061092C5061092C606109291
:101DA000C7061092C8061092C9061092CA06109271
:101DB000CB061092CC061092CD061092CE06109251
:101DC000CF061092D0061092D1061092D206109231
:101DD000E8061092E9061092EA061092EB061092BD
:101DE000EC061092ED061092EE061092EF0610929D
:101DF000F0061092F1061092F2061092F30610927D
:101E0000F4061092F5061092F6061092F7068BE88B
:101E100093E09093B6068093B5060895CF93DF9331
:101E200000D01F92CDB7DEB7789484B5826084BDB0
:101E300084B5816084BD85B5826085BD85B58160CE
:101E400085BD80916E00816080936E00109281004C
:101E50008091810082608093810080918100816007
:101E600080938100809180008160809380008091C8
:101E7000B10084608093B1008091B0008160809354
:101E8000B00080917A00846080937A0080917A001B
:101E9000826080937A0080917A00816080937A00DA
:101EA00080917A00806880937A001092C10061E08E
:101EB0008DE00E94E60181E080930201109281038F
:101EC000109282038BE090E09093840380938303CD
:101ED0008AE090E090938803809387038DE090E000
:101EE00090938603809385038EE090E090938A031D
:101EF0008093890361E08BE00E94E60161E08091BC
:101F000087030E94E60161E0809185030E94E6015B
:101F100061E0809187030E94B80160E080918503B1
:101F20000E94B80160E0809183030E94B80162E0E2
:101F30008CE00E94E60162E089E00E94E60164E62E
:101F400070E080E090E00E943C02E7EBF0E08491DA
:101F5000E3EAF0E024912A83EFE8F0E0349139835A
:101F6000332309F445C081110E948F014981E42F78
:101F7000F0E0EE0FFF1FE458FF4FA591B491EC91F4
:101F80005A81E523A9F1E091BA02F091BB0282E007
:101F90008083E091B602F091B7021082E091B8021E
:101FA000F091B90280E180831092C202E091BE02FA
:101FB000F091BF0286E08083E091BC02F091BD0207
:101FC000808180618083E091BC02F091BD028081BC
:101FD00088608083E091BC02F091BD0280818068BE
:101FE0008083E091BC02F091BD0280818F7D80836F
:101FF00080E00E945F0380917A00846080937A0081
:1020000080917A008D7F80937A0080917A008E7F14
:1020100080937A0088E090E00E94090C8632954314
:1020200009F0ADC090E080E00E94090C9093B806E2
:102030008093B70682E090E00E94090C8093B90675
:1020400084E090E00E94090C8093BA0686E090E05C
:102050000E94090C8093BB0681E893E00E94CA09A4
:102060006091B7067091B80681E893E00E94530A28
:102070000E9417026093CF067093D0068093D1061A
:102080009093D20684E1282E312C412C512C7724B8
:1020900073940E946E026B017C018091A602909164
:1020A000A702A091A802B091A9028C159D05AE05CA
:1020B000BF0508F02CC18091020110E0823008F0C9
:1020C00082C081E893E00E94F509282FB701A6019C
:1020D00081E893E00E94FB07682E809100019091B7
:1020E00001019B838A838FB7F8941091A502012F79
:1020F00000710093A5028FBFAA80BB8098EBA91A3C
:102100009CEFB90AF501F081F98310FF21C08FB768
:10211000F894EA81FB81EA5CFC4F808091808FBF5C
:10212000B4018A819B810E94530AF501708211FFDC
:102130000FC0B40190E080E00E941D0CEA81FB8199
:10214000E55CFC4F1082EA81FB81ED5BFC4F108265
:10215000F5018081811102C015FD70828091A40279
:10216000882309F4AEC0002309F44EC0C092A00237
:10217000D092A102E092A202F092A3025FC060910D
:10218000B7067091B80690E080E00E941D0C609147
:10219000B90670E082E090E00E941D0C6091BA06E2
:1021A00070E084E090E00E941D0C6091BB0670E03E
:1021B00086E090E00E941D0C66E275E388E090E006
:1021C0000E941D0C49CF809102011817D8F447E7EF
:1021D00053E0149F9001159F300D11242F573C4F51
:1021E0003B832A83C9010E94F509282FB701A60164
:1021F0008A819B810E94FB070E946E026B017C0119
:102200001F5FE1CF612C69CF8091A0029091A10264
:10221000A091A202B091A302A7019601281B390B3D
:102220004A0B5B0BDA01C90189389341A105B1055D
:1022300028F01092A40281E00E945F0317FF0AC0F9
:10224000EA81FB81E85CFC4F608170E082E090E015
:102250000E941D0C12FF0AC0EA81FB81E75CFC4F63
:10226000608170E084E090E00E941D0C13FF0BC0C1
:102270008A819B81865C9C4FFC01608170E086E0D6
:1022800090E00E941D0CF9EECF16F3E0DF06E104AA
:10229000F10418F524EFC21621E0D206E104F1049E
:1022A00070F1C601845F914064E670E00E94B51150
:1022B0006D7F81E06130710509F080E00E944B0381
:1022C0001EC04981442309F4B9CF15FFB7CF16FDCD
:1022D000B5CF51E05093A40249CFC701B601A20186
:1022E00091010E94C911672B51F481E06110E6CF82
:1022F0000023A9F081E00E944B031092A502C09236
:10230000A602D092A702E092A802F092A9020E942F
:10231000F600882309F4BDCE0E942907BACEC70172
:10232000B60120ED37E040E050E00E94C91121E005
:10233000672B682B692B09F020E0822FBFCFF9991A
:10234000FECF92BD81BDF89A992780B50895262FBA
:10235000F999FECF1FBA92BD81BD20BD0FB6F8948A
:10236000FA9AF99A0FBE0196089597FB072E16F474
:10237000009407D077FD09D00E94EB1107FC05D02F
:102380003EF4909581959F4F0895709561957F4F8C
:102390000895A1E21A2EAA1BBB1BFD010DC0AA1FA6
:1023A000BB1FEE1FFF1FA217B307E407F50720F0BE
:1023B000A21BB30BE40BF50B661F771F881F991F39
:1023C0001A9469F760957095809590959B01AC0182
:1023D000BD01CF010895AA1BBB1B51E107C0AA1F75
:1023E000BB1FA617B70710F0A61BB70B881F991FB6
:1023F0005A95A9F780959095BC01CD010895EE0FEF
:0E240000FF1F0590F491E02D0994F894FFCF92
:10240E0081030102FFFFFFFFFFFFFFFFFFFFFFFF43
:10241E00FFFFFFFFFFFFFFFF01FFFFFFFFFFFFFFBC
:10242E00FFFF010101FFFF02FFFF010101FFFFFF9F
:10243E00010000000022018C00B9006F01EA00C803
:10244E0000DC000000000037032C034803020325C4
:10245E00031203030300000000F605610557054D46
:10246E000500000000B70BB00B820B210B7F0B7F1A
:10247E000B140B00000000780B710B430B210B1D8E
:10248E000B1D0B140B4649524D574152455F564595
:10249E005253494F4E3A20312E312E350046495275
:1024AE004D574152455F4255494C44444154453A7B
:1024BE00204A756C20313120323032340046495278
:1024CE004D574152455F4255494C4454494D453A4A
:1024DE002032313A31313A3137004649524D574167
:1024EE0052455F50524F43545950453A2041726401
:0624FE0075696E6F00001D
:00000001FF
